:020000040800F2
:1000000050040020C90000088D170008950E000854
:1000100000000000000000000000000000000000E0
:10002000000000000000000000000000451C000867
:100030000000000000000000E91A0008551F000839
:10004000DB00000800000000DB000008DB00000807
:10005000DB000008C50B0008290C0008DB000008C5
:1000600000000000DB000008DB000008DB000008E7
:10007000DB000008DB000008DB00000800000000D7
:10008000DB0000088520000800000000DB000008FD
:10009000DB000008DB000008DB000008DB000008D4
:1000A000DB000008DB000008DB000008DB000008C4
:1000B000DB0000080348854600F004FC00480047C8
:1000C000B923000850040020044880470448004732
:1000D000FEE7FEE7FEE7FEE7FEE7FEE72920000871
:1000E000B500000830B50B4601460020202201244F
:1000F00009E00D46D5409D4205D31D469540491B5C
:100100002546954040191546521E002DF1DC30BDA4
:1001100070B500242546002801DA01244042002958
:1001200001DA01254942FFF7DDFFAC4200D0404231
:10013000002C00D0494270BDF8B502464A40D40FA9
:1001400042004B0052085B089A4202D2024608461F
:1001500011464A0023D0C30D4A00DDB2120EAD1A7B
:10016000202D35DA49020126490AF6058A19002CA4
:1001700000D0524220214F1B1146B9402A4110188D
:10018000C20D9A4221D0002C17D0012D08DCDA05CF
:10019000801AD20F8019D207DBB200F0DCFAF8BD6A
:1001A000DA05801A012340001B06C01880185A4245
:1001B0008018CA0F1043490007E04908C2071143DD
:1001C000DA05801A80194008801800F0BCFAF8BDE2
:1001D00061000122511A001BF7E70122D2075140AA
:1001E000AAE70122D2075040A6E7024670B54A406E
:1001F000D30FDB0740002DD04A002AD0010E140E89
:10020000000212020919400A520A8418E501044644
:100210005443000A120A2E045043A4194219200C18
:10022000C543AA18120C0125AD03521C5219120421
:100230007F39240400D0521C104301D44000491ED1
:10024000C2B20C06C0092018401C4008802A02D007
:1002500003E0002070BD40084000002900DA0020C3
:10026000184370BDF0B507460846584087B0C00F28
:10027000049048000E46590040084908BC1A8841BD
:1002800005D2384631461E4617460B4602465800F0
:10029000400810434CD0300D039040055900400DEC
:1002A000490D0590401A0290402872DA1803012186
:1002B000000B09050843019004980092002805D01E
:1002C00001995242002088410092019002984021F9
:1002D0000A1A0199009800F013FA05460C466B467D
:1002E00007CB00F01DFAC0197141039A0E0D0023CF
:1002F000D71756401A467A40164344D0049A002A2B
:100300002DD0029A012A039A15DC1205C01A9141D8
:1003100001263605001C7141D20F059ED2070093BD
:10032000019202962A46234600F07AFA07B0F0BD01
:1003300038463146FAE71605224A0F46B218C01A67
:10034000B74101210905001C4F4100187F411146AA
:1003500018187941E20F10436D19644113E0E20768
:100360006D0815436408C2071443039A0126120559
:10037000C01A91413605001C7141CE074008304338
:100380004908C01851412A46234600F03CFACDE7FF
:10039000FFE7049801224000C117121A00238B4185
:1003A00004983146C417381AA141EEE730B401244D
:1003B000E407634030BC55E730B40124E4076140F2
:1003C00030BC4FE70000E0FFF0B51FB488B00B99D8
:1003D0000998002448400999C00F4900490809912B
:1003E000C0070B990090490049080B91099908989A
:1003F000A64608431CD00B990A98084318D00998C0
:1004000001244000420D4800410D099824050003D5
:10041000000B204309900B980003000B20430B9026
:1004200050181C494018002201901446104605E05F
:10043000002001460DB0F0BD032801DA034600E0BC
:1004400003239C46C11A0AAE0AE05F0008ADED5BCB
:100450004F00F75B7D430027AA187C41491C5B1EB7
:100460006145F2DD410004AB5A522104120C0A43EB
:10047000240C401C0828DFDB01980290009970468C
:1004800001910090059B049A0799069800F0C8F91D
:10049000D0E700000DFCFFFFF0B50C465C4085B0D6
:1004A000E40FE40703944C000026640859009446C6
:1004B000490802460296224321D062460A431ED0D2
:1004C0006200570D4A000E032303550D0124024616
:1004D0002C492405781B1B0B360B4018234326435D
:1004E000614600901C46501AB44103D30098401C4A
:1004F000009002E0921800985B41002803DA002087
:10050000014605B0F0BD00200121090507468646D9
:1005100011E064461D46141BB54106D36546521BC7
:10052000B341744607430C43A646CD07400849082B
:10053000284392185B4105460D43EAD11046184303
:1005400013D06046194650407140084306D06046BB
:10055000101AB34106D20122002306E00022012333
:10056000DB0702E00122D2435310009874460105D4
:10057000381C6141029C039D0019694100F043F958
:10058000BFE70000FD03000070B54B005B080343AC
:100590000BD04B005C0D002633466542B341D417A7
:1005A000AD1AA34102DB0020014670BD12053018D0
:1005B000514170BDC217C10F504010B54018CA0755
:1005C0009623002100F0C7F810BD10B50022962335
:1005D000114600F0C0F810BD0EB5C217C10F504053
:1005E000CA0740180021054B0293019200910A4668
:1005F0000B4600F015F903B000BD00003304000005
:100600000EB505490291002100910A460B46019161
:1006100000F006F903B000BD33040000C20F410032
:1006200040020123400ADB05D207090EC0187F29CA
:1006300001DA00207047962903DC9623591AC84036
:1006400001E096398840002AF4D0404270474100CA
:1006500040020122400AD205090E80187F2901DAE2
:1006600000207047962903DC9622511AC840704733
:10067000963988407047C20FD207400040080BD01F
:10068000C10D0723DB01C91840020905400A1143C7
:10069000C208400711437047002001467047CB0F46
:1006A000DB07490010B5490802460A4307D00A0D86
:1006B00007240903E401090B121B002A01DC0020B6
:1006C00010BDC900440F0C43C100E018D2058018CA
:1006D00000F039F810BD00000122D207002800DB2D
:1006E000101A002900DB511A814270470122D207FB
:1006F000002800DB101A002900DB511A88427047DD
:1007000010B5202A04DB0146203A9140002010BD9C
:10071000914020239C1A0346E3401943904010BDAA
:1007200010B5202A06DBCB170846203A1041C11726
:100730000B4306E00B461341D0402024A21A9140FF
:100740000843194610BD002904DA401C490001D1B4
:1007500040084000704770B40024050C05D11024F7
:10076000000402D1002921D01124050E01D100027C
:100770000834050F01D10001241D850F01D180002F
:10078000A41C002801DB4000641C002908D020259F
:100790002E1B0D46F540A14000D0012129430843FE
:1007A00001061B1B000ADB1D02D5002070BC704730
:1007B000DB05181880180029F8DA401C4900F5D12B
:1007C00070BC40084000704710B541000DD041009A
:1007D000090E962909DC7E290ADC07DB410205D0D7
:1007E000C00F7F21C007C905401810BD002010BDF3
:1007F0009622541A20210A1B01469140E040FFF73F
:10080000A2FFA04010BD10B5002B08DA0024401C48
:10081000614192185B411A4301D14008400010BD6C
:10082000F0B51FB482B005460C0003D0084601F0B5
:100830009DFD02E001F09AFD203002460090214625
:100840002846FFF75DFF049B059A04460F461843B0
:100850001143084314D0184610431BD00098402180
:100860000A1A1846059900F03FF805460E46009A08
:1008700005990498FFF744FF084305D0012004E0E0
:100880002046394607B0F0BD0020C11705430E438E
:100890002C43374300990E986305401A7905E40A02
:1008A00000220C43FD0A0A3002D500200146E9E788
:1008B0000105101969410C9C0D9D00196941FFF754
:1008C000A2FFDFE7064C0125064E05E0E36807CCF2
:1008D0002B430C3C98471034B442F7D3FFF7EEFBA0
:1008E000685D0008885D000810B5202A04DB084612
:1008F000203AD040002110BD0B46D340D0402024E8
:10090000A21A91400843194610BD0000FFB0D3B0B1
:10091000002003900790944C94A001F003F99C49A7
:10092000012008705021002001F08AF800250126DE
:10093000984FF602BE61FA2000F042FDBE62FA2036
:1009400000F03EFD6D1CEDB2042DF0D3002600201A
:100950000090142000F034FD01F038F900270590D4
:1009600001F034F9054605980121281A4903C842C7
:1009700002DA48002D1805E001214903884201DD13
:1009800048002D1A0098401900900A2000F018FD28
:100990007F1CFFB205950A2FE2D30A210098FFF7CA
:1009A000B7FB01218903884201DD401A04E00028D9
:1009B00002DA012189034018B10009AF785001F033
:1009C0001DF8642000F0FCFC761CB6B2C82EBED325
:1009D000714900204863886370A001F0A3F80025E6
:1009E000C821681CFFF77EFB880009AE3758C82174
:1009F0002846FFF777FB880030583E1A6B4886423E
:100A000003DA01208003361806E068484042864237
:100A100002DD01208003361AB0B201F066F8002032
:100A2000AA000CE009A989580918CB179B0C5B1880
:100A30009B0B9B03994201D103950790401CB04248
:100A4000F0DB6D1CEDB2C82DCAD350A001F06AF8DE
:100A500057A001F067F800F0E5F900F007F9039DF1
:100A60002846C93004906EE0C821681CFFF750FB8F
:100A7000880009AE3758C8212846FFF749FB88008F
:100A800030583E1A4948864202DA0120800336185F
:100A9000039885421AD16803079F089013E07803F2
:100AA0003146FFF735FB0899401819210904FFF773
:100AB0002FFB08466421FFF72BFB81B2204600F094
:100AC000CFF9A41C7F1CB742E9DB3AE0C83085426D
:100AD0001CD100276803089014E078033146FFF723
:100AE00017FB01460898081819210904FFF710FBA5
:100AF00008466421FFF70CFB81B2204600F0B0F9F4
:100B0000A41C7F1C07988742E7DB1AE000276803D4
:100B1000089014E078033146FFF7FAFA0146089886
:100B2000081819210904FFF7F3FA08466421FFF7B2
:100B3000EFFA81B2204600F093F9A41C7F1CB74263
:100B4000E8DB04986D1C85428EDB00F063F901251B
:100B5000ED02104CFF26F536606968406061304652
:100B600000F02EFCF8E7000000800008426567698D
:100B70006E6E696E672063616C6962726174696F21
:100B80006E20456E636F6465722E2E2E0D0A000076
:100B90000000002000040048000400405468652064
:100BA0007469636B733A0D0A0000000068C5FFFFAB
:100BB000546865206C6F6F6B757020646174613A66
:100BC0000D0A000070B5012000F0DAF9114E124D47
:100BD00000280ED00120706129781048104C00299F
:100BE0000168206802D0FFF7A7FA01E0FFF7F5FAE5
:100BF0002060022000F0C4F9002809D002207061B2
:100C00000146084800F01AFA012800D00020287098
:100C100070BD0000000401400000002028000020FA
:100C2000100000200004004810B5042000F0A8F9CE
:100C300000280ED00949042048610146084800F008
:100C4000FDF90849012805D00020087006494863CD
:100C5000886310BD0120087010BD00000004014031
:100C600000040048460000200004004000B5304861
:100C700000F09EF82F4800F09BF82F4800F098F8FD
:100C80002E4800F095F82E4800F092F82D4800F01C
:100C90008FF82D4800F08CF82C4800F089F82C488B
:100CA00000F086F82B4800F083F82B4800F080F81D
:100CB0002A4800F07DF82A4800F07AF8294800F028
:100CC00077F8294800F074F8284800F071F82848AF
:100CD00000F06EF8274800F06BF8274800F068F83D
:100CE000264800F065F8264800F062F8254800F034
:100CF0005FF8254800F05CF8244800F059F82448D3
:100D000000F056F8234800F053F8234800F050F85C
:100D1000224800F04DF8224800F04AF8214800F03F
:100D200047F8214800F044F8204800F041F800BDA1
:100D3000008000080084000800880008008C00087B
:100D4000009000080094000800980008009C00082B
:100D500000A0000800A4000800A8000800AC0008DB
:100D600000B0000800B4000800B8000800BC00088B
:100D700000C0000800C4000800C8000800CC00083B
:100D800000D0000800D4000800D8000800DC0008EB
:100D900000E0000800E4000800E8000800EC00089B
:100DA00000F0000800F4000800F8000800FC00084B
:100DB00070B50D4E0546304600F040F8002811D1C0
:100DC0000A4B18690224204318615D6118694021AB
:100DD00008431861304600F031F8012802D0196943
:100DE000A143196170BD0000FF5F000000200240B8
:100DF0000748C068C10701D001207047410701D5ED
:100E000002207047C00601D50320704700207047BC
:100E100000200240024801698022114301617047AD
:100E20000020024003480249416003494160704785
:100E30002301674500200240AB89EFCD00B5024693
:100E4000FFF7D6FF012803D0002A00D1FF2000BD04
:100E5000012001F061FA521E1204120CF0D1F5E7E4
:100E600030B505460C46FF20FFF7E8FF00280ED1FD
:100E7000074B18690121084318612C80FF20FFF7F8
:100E8000DDFF012803D0196949084900196130BD07
:100E900000200240FEE7000008B504494A69024309
:100EA0004A6149690140009108BD000000100240FC
:100EB00008B50449CA690243CA61C9690140009181
:100EC00008BD00000010024008B504498A690243C9
:100ED0008A6189690140009108BD0000001002404C
:100EE00010B50479012325490268002C3DD0002A61
:100EF00042D04479002C0FD0012C15D0022C16D0F2
:100F000000238279002A37D0012A18D0022A1FD064
:100F1000032A21D000232FE04C6894434C600268E0
:100F20000C6814430C60ECE70C68944301E00C6817
:100F300014430C6002684C6814434C60E1E702689B
:100F4000CC689443CC6000688A6802438A6013E0EE
:100F500002688C68944302E002688C6814438C60D9
:100F60000068CA680243CA6006E00C6894430C60DB
:100F700000684A6882434A60184610BD0004014078
:100F800003494969884301D0002070470120704718
:100F900000040140F0B500243EE001232A46A340AE
:100FA0001A4038D04F680668134653435D005D19F8
:100FB000AE435F433E4306604E68012E01D0022ED1
:100FC00005D18F6886685F43AE433E4386600F69F4
:100FD000C668AE431D467D432E43C6604D68022D54
:100FE00019D1FF2A0AD84E69056A534353431A019F
:100FF000D21A954373431D4305620CE0130A1A4647
:101000005A435A435A4313019E1A4D69436A6A432D
:10101000B34313434362641C0A681546E240BCD1E3
:101020004A68012A01D0022A06D1CB6841682A46C3
:1010300091435A43114341600120F0BD006981434F
:1010400001D000207047012070470069814301D022
:10105000002070470120704710B5036849434C00D9
:101060000C19A34351430B43036010BD10B5C36873
:1010700049434C000C19A34351430B43C36010BDBB
:1010800010B57D21C900FFF72DF80449401E4861C5
:10109000002088610520086110BD000000E000E02C
:1010A00010B5044600F062FD206000F045FD606070
:1010B00000F050FDA06010BD014610B500200029D1
:1010C0000FD110490A6B9207920F012A0AD0022A07
:1010D00011D0032A09D000F049FD00F02DFD00F0E9
:1010E00039FD10BD00F042FD10BD09688907C90F28
:1010F000FAD0054810BD096A8907C90FFAD0012046
:10110000C00310BD0010024000127A0010B5036841
:1011100000225B06DB0F25D10CC98C681A434B6893
:1011200023431A43CB681A430B691A434B691A438A
:101130008B691A4303680C4C23401A4302604268CF
:101140000A4B1A40CB681B0C1A430B681A434260C7
:1011500001238A695B0308399A4202D1898C89B2DA
:1011600001610122104610BD4000FFFFFBF0FFFFB0
:101170000A06930D054A10B59B189A68090C0F24AE
:101180008C40A243884002439A6010BD0000014099
:10119000014908607047000048000020F0B502686F
:1011A000194B1A4C984201D0A04203D17025AA4392
:1011B0004D682A43164D174E174F98420AD0A04249
:1011C00008D0164CA04205D0A84203D0B04201D0AE
:1011D000B84204D103242402A243CC682243026013
:1011E0008A68C2620A888262984205D0A84203D007
:1011F000B04201D0B84201D1097C016341690122AA
:10120000114341611046F0BD002C01400004004034
:1012100000400140004401400048014000200040DF
:10122000012910D0042910D0102910D0402910D045
:10123000CA1FF93A05D00122920291420BD1052131
:101240000AE0042108E0002106E0012104E0022177
:1012500002E0032100E00621064A1830525C054BEB
:101260001018DB1D5B5C0421026899408A43026010
:1012700070470000F0240008012910D0042910D084
:10128000102910D0402910D0CA1FF93A05D00122E8
:10129000920291420BD105210AE0042108E00021CD
:1012A00006E0012104E0022102E0032100E0062122
:1012B000064A1830525C054B1018DB1D5B5C082198
:1012C000026899400A43026070470000F024000859
:1012D000034610B5002001290DD0102910D0FF3988
:1012E000491E12D00F242402A14203D111461846F0
:1012F00000F04AFB10BD1146184600F06BFA10BD15
:101300001146184600F0ACFA10BD1146184600F020
:10131000EFFA10BDFEB5044600680D460026C00772
:10132000C00F43D1E9686868AA6908432969114375
:10133000084321681E4A114008432060A96860687C
:10134000032212039043084360606969A068121188
:1013500090430843A0601748844203D10020FFF760
:10136000ABFE06E01448844220D16846FFF798FEA1
:10137000029800281AD02968002917D00126AA69E6
:10138000F3039A420CD140004A088018FEF7AAFEE7
:1013900081B20A4808400907490F0143E16005E0AE
:1013A0004A081018FEF79EFE80B2E0603046FEBD8F
:1013B000F369FFFF0038014000440040F0FF0000E7
:1013C00008B506490A690092421C00D0401C0A690F
:1013D000D20300D5401E0028F9D108BD00E000E08E
:1013E000F0B5012089B0C004FFF756FD012040048C
:1013F000FFF752FD01208004FFF74EFD01265E4FEE
:10140000F602BE624020B8628020B8628000B862F6
:101410004010B86201250024092000956946C006E5
:1014200004950194FFF7B6FD02200090092069465B
:1014300004950194C006FFF7ADFD0420009009203B
:10144000694604950194C006FFF7A4FD08200090AA
:101450000920694604950194C006FFF79BFD00969C
:101460000326019503946946384602960494FFF7D3
:1014700091FD402003946A46049461C2694638464F
:10148000FFF788FD802003946A46049461C2694690
:101490003846FFF77FFD680203946A46049461C2F0
:1014A00069463846FFF776FD280203946A4604949D
:1014B00061C269463846FFF76DFD102003946A4605
:1014C000049461C209206946C006FFF763FD00214C
:1014D0000120FFF74DFEA9040120FFF749FEE904B2
:1014E0000120FFF745FE002201213846FFF7BEFD2F
:1014F000002202213846FFF7B9FD012204213846B7
:10150000FFF7B4FD002201213846FFF7A5FD0022B8
:1015100002213846FFF7A0FD002204213846FFF7DC
:101520009BFD68460695057744770221817706A8DA
:10153000FFF7D6FC02200690684605774477867749
:1015400006A8FFF7CDFC042006906846057744778F
:10155000867706A8FFF7C4FC0021052000F018F9E3
:10156000064C202020600121062000F011F94020C7
:10157000206009B0F0BD00000004004880E100E0F8
:10158000F0B5012091B00003FFF79EFC202002255A
:1015900003276946A1C1002430C109206946C0065D
:1015A0000594FFF7F7FC4026092000960195039467
:1015B0006946C006029704950594FFF7EBFC80206E
:1015C0006946A1C130C109206946C0060594FFF7EC
:1015D000E1FCFF20053007900F2000020890012059
:1015E00006940A90099440020D940E940B900720E3
:1015F000074C10250F900C9506A92046FFF786FD95
:101600006068A843606020683043206011B0F0BD7E
:1016100000300140F0B593B00220FFF749FC0025EF
:10162000012610200224032703956A460596049597
:1016300091C269462A48FFF7ADFC202003956A460F
:101640000596049591C269462548FFF7A3FC6846B4
:101650000587E001234C10900F950EA911952046A7
:10166000FFF79CFD20688027B8432060A0681E49D2
:101670000840A06001212046FFF7FEFD6020069093
:1016800007950895099506AA01210A952046FFF7B6
:101690001FFE01212046FFF7C3FD10212046FFF762
:1016A000EBFD079506AA102120460895FFF710FECE
:1016B00010212046FFF7B4FD606870218843606008
:1016C000A068B843A060206A30432062206A1021DD
:1016D0000843206220683043206013B0F0BD000052
:1016E0000004004800040040F8BFFFFFF0B50120EF
:1016F0008DB08003FFF7E8FB0024012001254002A4
:101700000226032703946A4605950494C1C2092062
:101710006946C006FFF73EFCA80203946A46059599
:101720000494C1C209206946C006FFF733FC4B2070
:10173000400206900794089409940B940C940C2092
:101740000D4C0A9006A92046FFF7E4FDA16820157C
:101750008143A160A068A1140843A060606849109B
:1017600088436060A06808218843A06020682843FF
:1017700020600DB0F0BD00000038014010B50C46EF
:10178000FEF7C6FC080000D5081910BD7047000020
:101790008307FF22DB0E9A408907090E9940002833
:1017A0000BDA0007000F0838830808489B00181858
:1017B000C36993430B43C3617047830804489B008C
:1017C0001B181868904308431860704700ED00E04C
:1017D00000E400E030B5026A520852000262026A78
:1017E000436884697025A408A400AC430D682C43A9
:1017F0000225AA430D692A4352084D6852002A4324
:10180000134DA84208D0134DA84205D0124DA8424E
:1018100002D0124DA84214D10825AA434D69AD004B
:101820002A430425AA438D68AD002A43FF250135CC
:10183000AB438D692B4301256D02AB43CD696D0030
:101840002B4343608461C96841630262012030BD5B
:10185000002C01400040014000440140004801408C
:1018600070B5026A1025AA430262026A436884695D
:1018700073263602B4430E68360234432026B24340
:101880000E6936013243AA434D682D012A43144D97
:10189000A84208D0134DA84205D0134DA84202D04B
:1018A000124DA84215D18025AA434D69AD012A43A6
:1018B0004025AA438D68AD012A430125AD02AB4303
:1018C0008D69AD002B430125ED02AB43CD69ED00E1
:1018D0002B4343608461C96881630262012070BD4B
:1018E000002C0140004001400044014000480140FC
:1018F00070B5026AFF250135AA430262026A436895
:10190000C4697026A408A400B4430E6834436E0072
:10191000B2430E6936023243AA434D682D022A4370
:10192000154DA84208D0154DA84205D0144DA84227
:1019300002D0144DA84217D10125ED02AA434D69EA
:10194000AD022A430125AD02AA438D68AD022A43A8
:1019500001252D03AB438D692D012B4301256D031B
:10196000AB43CD696D012B434360C461C968C1635A
:101970000262012070BD0000002C014000400140C7
:10198000004401400048014070B5026A01252D0362
:10199000AA430262026A4468C36973263602B343EB
:1019A0000E68360233436E00B2430E69360332438B
:1019B000AA434D682D032A430C4DA84208D00C4D74
:1019C000A84205D00B4DA84202D00B4DA84205D12C
:1019D0000125AD03AC438D69AD012C434460C36167
:1019E000C96801640262012070BD0000002C014042
:1019F0000040014000440140004801400D4810B53E
:101A000002780146496A002A01D0491C00E0491EBB
:101A100041620846FEF7E0FD074A084BFEF7D4FC9A
:101A2000FEF73DFE502100F00BF80A20FFF7C8FC3E
:101A300010BD000000000020CDCCCCCCCCCCFC3FB5
:101A4000F8B50C46234A01461046FEF7CEFB054684
:101A5000FEF7E4FDE1273F013946FFF78FFE06B2AE
:101A600028461D49FEF768FBFEF7D8FD3946FFF70B
:101A700085FE1A4A00B2B1008000515A105A09B2CC
:101A800002B220464843C117890D081881125443F9
:101A9000E017800D00198212114B1248002905DB56
:101AA0009963402181618021816205E04942996307
:101AB0004021816280218161FF2101314C00002A97
:101AC00003DB5A6381618462F8BD52425A638162CA
:101AD0008461F8BD0000FA4300006144002500085D
:101AE000000400400004004870477CB504246D46A3
:101AF0000A21FEF7F7FA30312955641E64B2002C32
:101B0000F6DA0022A85C302809D1521C52B2042A0D
:101B1000F8DB04E0A85C00F0F1FB521C52B2052A8D
:101B2000F8DB7CBD00B5024602E000F0E7FB521C8A
:101B300010780028F9D100BD04494968F02211400D
:101B4000034A0909515CC840704700000010024078
:101B50004E5D000803494968034A4905490F515C35
:101B6000C8407047001002405E5D000810B506488E
:101B700041680C200140054805D0042903D00829FC
:101B800001D100F005F810BD0010024000127A00EB
:101B900010B50C4C6168012212040B48114002D0B0
:101BA000914200D14000E16A0907090F491CFEF784
:101BB00099FA61680F2292041140890C891C4843EC
:101BC00010BD00000010024000093D0000B50248B1
:101BD00000F00CF8400800BD2180000000B502486C
:101BE00000F004F800BD000001800000102109226F
:101BF000D206916211498B689B07DB0FFBD088816D
:101C00008868C007C00FFBD0C86853688020834332
:101C10000343536088688007C00FFBD00848888161
:101C20008868C007C00FFBD0C8684004400C102172
:101C300091615168802399435160704700300140A1
:101C4000FFFF00007047000070B542A0FFF76AFF79
:101C5000484C494D49A0FFF765FF4DA0FFF762FFD3
:101C60006068FEF7F4FC80B2FFF73FFF40A0FFF78B
:101C700059FF4BA0FFF756FFA068FEF7E8FC80B2C3
:101C8000FFF733FF3AA0FFF74DFF49A0FFF74AFFE8
:101C9000E068FEF7DCFC80B2FFF727FF34A0FFF717
:101CA00041FF47A0FFF73EFFE8698006C00FFBD069
:101CB000A88CC0B2642834D0692818D0702805D008
:101CC0007128C7D142A0FFF72DFF70BD43A0FFF7D9
:101CD00029FFE8698006C00FFBD0A88CC0B2FEF7D0
:101CE00074FC606040A0FFF71DFF606829E041A020
:101CF000FFF718FFE8698006C00FFBD0A88CC0B2C0
:101D0000FEF77EFC00223E4BFEF7C6FBFEF7C7FC4B
:101D1000A0603CA0FFF706FF3D49A068FEF765FA0A
:101D20000FE03CA0FFF7FEFEE8698006C00FFBD085
:101D3000A88CC0B2FEF749FCE06039A0FFF7F2FEC4
:101D4000E068FEF784FC80B2FFF7CFFE08A0FFF743
:101D5000E9FE7FE72D2D2D2D2D20487970657253DA
:101D600074657070657220312E30202D2D2D2D2D33
:101D70000D0A00000000002000380140456469742D
:101D800020504944206761696E733A0D0A000000D3
:101D900070202D2D2D2D2D206B70203D200000005A
:101DA00069202D2D2D2D2D206B69203D2000000058
:101DB00064202D2D2D2D2D206B64203D2000000052
:101DC00071202D2D2D2D2D20717569740D0A0000A7
:101DD000646F6E652E2E2E0D0A0000006B70203D84
:101DE000203F0D0A000000006E6577206B70203DDB
:101DF000200000006B69203D203F0D0A000000001C
:101E0000000024406E6577206B69203D20000000B3
:101E1000000020416B64203D203F0D0A00000000BF
:101E20006E6577206B64203D2000000070B50125B1
:101E3000ED02A1202946C00100F078FAFFF7CEFE9E
:101E400000060DD5394E0024B561C820FFF7B8FA59
:101E5000B562C820FFF7B4FA641CE4B20A2CF3D3CD
:101E60000925ED0601212846FFF7EFF8002807D0E5
:101E700008212846FFF7E9F82D4C012802D007E099
:101E8000FEF744FD04212846FFF7DFF8012806D0BD
:101E900008212846FFF7D9F8002802D007E0254896
:101EA00015E004212846FFF7D0F8012806D00821C4
:101EB0002846FFF7CAF8012802D007E01E4806E0CE
:101EC00004212846FFF7C1F8002810D01B48A06263
:101ED00002212846FFF7B9F80121002809D0002087
:101EE00060701748202101604021016070BD1548D5
:101EF000EDE761701448FFF779FE40081349400090
:101F000040180088FEF761FBFEF7B5FB0022104B7E
:101F1000FEF75AFA0D22D243FEF736FBFEF7BFFB5F
:101F200020616061A061E0612062DAE7000400489E
:101F3000000000206666E63E6666663E6666663DB2
:101F400000E100E06666E63D2180000000800008B8
:101F5000008076407047000070B52F48012102686C
:101F60008A430A4302600068084053D02B4C216822
:101F700001200143216021688907C90FFBD0216836
:101F8000F8229143802211432160616A014361621A
:101F9000606A8007C00FFBD005216068C9043D223C
:101FA0001204904308436060E06A00090001E062A7
:101FB0002068012109060843206020688001C00FC5
:101FC000FBD06068F02188436060606807210902E7
:101FD000884360606168022089088900014361606C
:101FE0000C21606808400828FBD10D4D2846FFF7FA
:101FF00047F80C4908690422104308612846FFF796
:10200000C7F8206B8008800020630021481EFFF77E
:10201000BFFB70BDFEE70000002002400010024040
:10202000006CDC0200E000E013480168012211436B
:1020300001604168114A114041600168104A114035
:1020400001600168012292049143016041683F22CE
:10205000120491434160C16A09090901C162016B1F
:10206000FF22143291430163416B490849004163E7
:102070000021816070470000001002400CB8FF088A
:10208000FFFFF6FEFEB57E480169C907C90F71D092
:102090000121C94301617C497A4808607B48007886
:1020A000012867D17A487B4F00787B4E7B4D7C4C72
:1020B00001280ED031682068FEF70EFB71D1288808
:1020C0007D21401C80B2C900288088426AD32980C3
:1020D000CCE07448FFF78AFD40087349400040187F
:1020E0000088FEF772FA714DFEF7C5FA704E0022B5
:1020F0003346FEF769F90D22D243FEF745FAFEF7A3
:10210000CEFA28606B4900900968FEF766F86A4AC3
:102110006A49904202DD0868401E04E0684A904225
:10212000086801D9401C0860FEF756FA00223346C1
:10213000FEF74AF906460F460098FEF79CFA32462B
:102140003B46FEF78FF8FEF7AAFA5E4D014628607F
:102150002068FEF742F85C4A5E4C10602478014625
:102160005A4F01206642C002594B5B4CB94202DD16
:10217000986101E074E0986258480068FEF735F80D
:102180002168FDF7D9FF0746206052480078FEF726
:102190001CFA39460090FEF79FFA04D2009820609E
:1021A0000AE05EE060E03046FEF704FA0646216889
:1021B000FEF79CFA00D22660494E286831680190EB
:1021C000FEF70BF805464748016847480068FEF7E8
:1021D0000CF82946FEF709F80546444F444839688B
:1021E0000068FEF702F82946FDF7F7FF054638605C
:1021F000354801683F480068FDF7F7FF2168FDF7A3
:102200009BFF2946FDF798FF3B4C284D206029494C
:102210002A680A60019931600123FF21DB058905E5
:1022200007469842104603DBFDF786FF286006E06C
:10223000FDF7D3FF28600120C007474027600098C2
:102240002168FEF749FA01D3206801E00098206078
:1022500000F014F9FEF7FBF9C1B22868FFF7F0FBB4
:10226000FEBD0020288004E0884202D3387841086F
:1022700000E039782068FFF7E3FB20683060FEBD9E
:1022800000100040AAAA00000030004046000020D4
:10229000010000204D5D00082C00002044000020BB
:1022A00010000020218000000080000814000020A1
:1022B00000807640180000200000344330000020E9
:1022C000000034C31C000020340000206666E63F96
:1022D000000400484C5D0008380000200800002081
:1022E000200000200C000020485D00083C00002079
:1022F000445D0008040000204000002005490885D6
:1023000000E000BFC8690006C00FFAD04020086294
:1023100070470000003801400A2148430004000CC7
:1023200003D000BF00BF401EF8E7704710B5102271
:102330000923DB069A620C4A9468A407E40FFBD0D9
:1023400090819068C007C00FFBD0D068906880076C
:10235000C00FFBD091819068C007C00FFBD0D06840
:102360001020986110BD0000003001402021020CB7
:1023700001D010211046020A01D010460839020986
:1023800001D01046091F820801D01046891E42085C
:1023900001D0881E7047081A704702E008C8121F53
:1023A00008C1002AFAD170477047002001E001C13E
:1023B000121F002AFBD1704786B00120FEF784FD72
:1023C0000021481FFFF7E4F90021881EFFF7E0F91C
:1023D0000021481EFFF7DCF9FFF7BEFDFFF700F80C
:1023E000FFF7CEF8FFF716F9FFF780F96420FEF744
:1023F000E7FFFFF71BFD1020FEF75AFD012111201A
:10240000FFF7C6F9012616497004086000256846E2
:1024100005804B20C001134C02906946019520466F
:10242000FEF7BCFE2068802188432060E0683043CE
:10243000E0602068304320600C480B4901600C4983
:10244000016045600B490161FF21F5318160C16880
:102450004907FCD108490160FFF7F6FBFCE70000E3
:1024600000E100E000100040CCCC00000030004053
:1024700055550000FF0F0000AAAA000070B50546E0
:10248000FEF7A2F9044601462846FDF7A6FE7F2680
:102490003F22BF23FF21F60512061B060906002D69
:1024A0000CDA984202D343008B420CD9904219DDDA
:1024B0004000884211D915E0044613E0984207D93C
:1024C00043008B4204D831462046FDF786FEF3E7F1
:1024D000904207DB4000884204D831462046FDF791
:1024E0002BFEE9E760004008E90FC907084370BD0B
:1024F00000000000040404000008000000080000C0
:1025000000000000020000000400000005000000C0
:1025100007000000090000000B0000000D00000093
:102520000E00000010000000120000001400000067
:102530001500000017000000190000001B0000003B
:102540001D0000001E00000020000000220000000E
:1025500024000000260000002700000029000000E1
:102560002B0000002D0000002E00000030000000B5
:102570003200000034000000360000003700000088
:10258000390000003B0000003D0000003F0000005B
:10259000400000004200000044000000460000002F
:1025A00047000000490000004B0000004D00000003
:1025B0004F000000500000005200000054000000D6
:1025C0005600000057000000590000005B000000AA
:1025D0005D0000005F00000060000000620000007D
:1025E0006400000066000000670000006900000051
:1025F0006B0000006D0000006F0000007000000024
:1026000072000000740000007600000077000000F7
:10261000790000007B0000007D0000007F000000CA
:10262000800000008200000084000000860000009E
:1026300087000000890000008B0000008D00000072
:102640008F00000090000000920000009400000045
:102650009600000097000000990000009B00000019
:102660009D0000009E000000A0000000A2000000ED
:10267000A4000000A5000000A7000000A9000000C1
:10268000AB000000AD000000AE000000B000000094
:10269000B2000000B4000000B5000000B700000068
:1026A000B9000000BB000000BC000000BE0000003C
:1026B000C0000000C2000000C3000000C500000010
:1026C000C7000000C9000000CA000000CC000000E4
:1026D000CE000000D0000000D1000000D3000000B8
:1026E000D5000000D7000000D8000000DA0000008C
:1026F000DC000000DE000000DF000000E100000060
:10270000E3000000E5000000E6000000E800000033
:10271000EA000000EC000000ED000000EF00000007
:10272000F1000000F3000000F4000000F6000000DB
:10273000F8000000F9000000FB000000FD000000B0
:10274000FF00000000010000020100000401000081
:102750000601000007010000090100000B01000054
:102760000C0100000E010000100100001201000029
:1027700013010000150100001701000019010000FD
:102780001A0100001C0100001E0100001F010000D2
:1027900021010000230100002501000026010000A6
:1027A000280100002A0100002B0100002D0100007B
:1027B0002F0100003101000032010000340100004F
:1027C0003601000037010000390100003B01000024
:1027D0003C0100003E0100004001000042010000F9
:1027E00043010000450100004701000048010000CE
:1027F0004A0100004C0100004D0100004F010000A3
:102800005101000052010000540100005601000077
:1028100057010000590100005B0100005D0100004C
:102820005E01000060010000620100006301000021
:102830006501000067010000680100006A010000F6
:102840006C0100006D0100006F01000071010000CB
:1028500072010000740100007601000077010000A1
:10286000790100007B0100007C0100007E01000076
:10287000800100008101000083010000850100004B
:1028800086010000880100008A0100008B01000021
:102890008D0100008E0100009001000092010000F7
:1028A00093010000950100009701000098010000CD
:1028B0009A0100009C0100009D0100009F010000A2
:1028C000A0010000A2010000A4010000A501000079
:1028D000A7010000A9010000AA010000AC0100004E
:1028E000AE010000AF010000B1010000B201000024
:1028F000B4010000B6010000B7010000B9010000FA
:10290000BA010000BC010000BE010000BF010000D0
:10291000C1010000C2010000C4010000C6010000A6
:10292000C7010000C9010000CA010000CC0100007D
:10293000CE010000CF010000D1010000D201000053
:10294000D4010000D6010000D7010000D901000029
:10295000DA010000DC010000DE010000DF01000000
:10296000E1010000E2010000E4010000E5010000D7
:10297000E7010000E9010000EA010000EC010000AD
:10298000ED010000EF010000F0010000F201000085
:10299000F4010000F5010000F7010000F80100005B
:1029A000FA010000FB010000FD010000FE01000033
:1029B0000002000002020000030200000502000005
:1029C0000602000008020000090200000B020000DD
:1029D0000C0200000E0200000F02000011020000B5
:1029E000120200001402000015020000170200008D
:1029F000190200001A0200001C0200001D02000063
:102A00001F0200002002000022020000230200003A
:102A10002502000026020000280200002902000012
:102A20002B0200002C0200002E0200002F020000EA
:102A300031020000320200003402000035020000C2
:102A400037020000380200003A0200003B0200009A
:102A50003D0200003E020000400200004102000072
:102A6000430200004402000045020000470200004B
:102A7000480200004A0200004B0200004D02000024
:102A80004E020000500200005102000053020000FC
:102A900054020000560200005702000058020000D5
:102AA0005A0200005B0200005D0200005E020000AE
:102AB0006002000061020000630200006402000086
:102AC0006502000067020000680200006A02000060
:102AD0006B0200006D0200006E0200006F02000039
:102AE0007102000072020000740200007502000012
:102AF0007602000078020000790200007B020000EC
:102B00007C0200007D0200007F02000080020000C5
:102B1000820200008302000084020000860200009E
:102B200087020000890200008A0200008B02000078
:102B30008D0200008E0200008F0200009102000052
:102B4000920200009402000095020000960200002C
:102B500098020000990200009A0200009C02000006
:102B60009D0200009E020000A0020000A1020000E1
:102B7000A2020000A4020000A5020000A7020000BB
:102B8000A8020000A9020000AB020000AC02000095
:102B9000AD020000AF020000B0020000B102000070
:102BA000B2020000B4020000B5020000B60200004C
:102BB000B8020000B9020000BA020000BC02000026
:102BC000BD020000BE020000C0020000C102000001
:102BD000C2020000C3020000C5020000C6020000DD
:102BE000C7020000C9020000CA020000CB020000B8
:102BF000CC020000CE020000CF020000D002000094
:102C0000D2020000D3020000D4020000D50200006E
:102C1000D7020000D8020000D9020000DA0200004A
:102C2000DC020000DD020000DE020000DF02000026
:102C3000E1020000E2020000E3020000E402000002
:102C4000E6020000E7020000E8020000E9020000DE
:102C5000EA020000EC020000ED020000EE020000BB
:102C6000EF020000F1020000F2020000F302000097
:102C7000F4020000F5020000F7020000F802000074
:102C8000F9020000FA020000FB020000FD02000051
:102C9000FE020000FF02000000030000010300002C
:102CA0000203000004030000050300000603000007
:102CB0000703000008030000090300000B030000E5
:102CC0000C0300000D0300000E0300000F030000C2
:102CD000100300001203000013030000140300009F
:102CE000150300001603000017030000180300007E
:102CF0001A0300001B0300001C0300001D0300005A
:102D00001E0300001F030000200300002103000039
:102D10002203000024030000250300002603000016
:102D20002703000028030000290300002A030000F5
:102D30002B0300002C0300002D0300002F030000D4
:102D400030030000310300003203000033030000B1
:102D50003403000035030000360300003703000091
:102D600038030000390300003A0300003B03000071
:102D70003C0300003D0300003F030000400300004F
:102D8000410300004203000043030000440300002D
:102D9000450300004603000047030000480300000D
:102DA000490300004A0300004B0300004C030000ED
:102DB0004D0300004E0300004F03000050030000CD
:102DC00051030000520300005303000054030000AD
:102DD000550300005603000057030000580300008D
:102DE000590300005A0300005B0300005C0300006D
:102DF0005D0300005E0300005F030000600300004D
:102E0000610300006203000062030000630300002E
:102E10006403000065030000660300006703000010
:102E200068030000690300006A0300006B030000F0
:102E30006C0300006D0300006E0300006F030000D0
:102E400070030000700300007103000072030000B3
:102E50007303000074030000750300007603000094
:102E60007703000078030000790300007903000075
:102E70007A0300007B0300007C0300007D03000058
:102E80007E0300007F030000800300008003000039
:102E9000810300008203000083030000840300001C
:102EA00085030000860300008603000087030000FE
:102EB00088030000890300008A0300008B030000E0
:102EC0008B0300008C0300008D0300008E030000C4
:102ED0008F030000900300009003000091030000A6
:102EE0009203000093030000940300009403000089
:102EF000950300009603000097030000980300006C
:102F000098030000990300009A0300009B0300004F
:102F10009B0300009C0300009D0300009E03000033
:102F20009F0300009F030000A0030000A103000016
:102F3000A2030000A2030000A3030000A4030000FA
:102F4000A5030000A5030000A6030000A7030000DE
:102F5000A7030000A8030000A9030000AA030000C3
:102F6000AA030000AB030000AC030000AC030000A8
:102F7000AD030000AE030000AF030000AF0300008C
:102F8000B0030000B1030000B1030000B203000071
:102F9000B3030000B3030000B4030000B503000056
:102FA000B5030000B6030000B7030000B70300003C
:102FB000B8030000B9030000B9030000BA03000021
:102FC000BB030000BB030000BC030000BD03000006
:102FD000BD030000BE030000BF030000BF030000EC
:102FE000C0030000C0030000C1030000C2030000D2
:102FF000C2030000C3030000C3030000C4030000B9
:10300000C5030000C5030000C6030000C60300009E
:10301000C7030000C8030000C8030000C903000084
:10302000C9030000CA030000CB030000CB0300006B
:10303000CC030000CC030000CD030000CD03000052
:10304000CE030000CE030000CF030000D003000039
:10305000D0030000D1030000D1030000D203000020
:10306000D2030000D3030000D3030000D403000008
:10307000D4030000D5030000D5030000D6030000F0
:10308000D6030000D7030000D7030000D8030000D8
:10309000D8030000D9030000D9030000DA030000C0
:1030A000DA030000DB030000DB030000DC030000A8
:1030B000DC030000DD030000DD030000DE03000090
:1030C000DE030000DE030000DF030000DF0300007A
:1030D000E0030000E0030000E1030000E103000062
:1030E000E2030000E2030000E2030000E30300004B
:1030F000E3030000E4030000E4030000E503000034
:10310000E5030000E5030000E6030000E60300001D
:10311000E7030000E7030000E7030000E803000006
:10312000E8030000E8030000E9030000E9030000F1
:10313000EA030000EA030000EA030000EB030000DA
:10314000EB030000EB030000EC030000EC030000C5
:10315000EC030000ED030000ED030000EE030000AF
:10316000EE030000EE030000EF030000EF03000099
:10317000EF030000EF030000F0030000F003000085
:10318000F0030000F1030000F1030000F103000070
:10319000F2030000F2030000F2030000F30300005A
:1031A000F3030000F3030000F3030000F403000046
:1031B000F4030000F4030000F4030000F503000032
:1031C000F5030000F5030000F6030000F60300001D
:1031D000F6030000F6030000F7030000F703000009
:1031E000F7030000F7030000F7030000F8030000F6
:1031F000F8030000F8030000F8030000F9030000E2
:10320000F9030000F9030000F9030000F9030000CE
:10321000FA030000FA030000FA030000FA030000BA
:10322000FA030000FB030000FB030000FB030000A7
:10323000FB030000FB030000FB030000FC03000095
:10324000FC030000FC030000FC030000FC03000082
:10325000FC030000FD030000FD030000FD0300006F
:10326000FD030000FD030000FD030000FD0300005E
:10327000FE030000FE030000FE030000FE0300004A
:10328000FE030000FE030000FE030000FE0300003A
:10329000FE030000FE030000FF030000FF03000028
:1032A000FF030000FF030000FF030000FF03000016
:1032B000FF030000FF030000FF030000FF03000006
:1032C000FF030000FF030000FF03000000040000F4
:1032D00000040000000400000004000000040000DE
:1032E00000040000000400000004000000040000CE
:1032F00000040000000400000004000000040000BE
:1033000000040000000400000004000000040000AD
:10331000000400000004000000040000000400009D
:10332000000400000004000000040000000400008D
:10333000000400000004000000040000000400007D
:10334000000400000004000000040000000400006D
:103350000004000000040000FF030000FF03000061
:10336000FF030000FF030000FF030000FF03000055
:10337000FF030000FF030000FF030000FF03000045
:10338000FF030000FF030000FF030000FF03000035
:10339000FE030000FE030000FE030000FE03000029
:1033A000FE030000FE030000FE030000FE03000019
:1033B000FE030000FD030000FD030000FD0300000C
:1033C000FD030000FD030000FD030000FD030000FD
:1033D000FC030000FC030000FC030000FC030000F1
:1033E000FC030000FC030000FB030000FB030000E3
:1033F000FB030000FB030000FB030000FB030000D5
:10340000FA030000FA030000FA030000FA030000C8
:10341000FA030000F9030000F9030000F9030000BB
:10342000F9030000F9030000F8030000F8030000AE
:10343000F8030000F8030000F7030000F7030000A2
:10344000F7030000F7030000F7030000F603000095
:10345000F6030000F6030000F6030000F503000089
:10346000F5030000F5030000F4030000F40300007E
:10347000F4030000F4030000F3030000F303000072
:10348000F3030000F3030000F2030000F203000066
:10349000F2030000F1030000F1030000F10300005B
:1034A000F0030000F0030000F0030000F003000050
:1034B000EF030000EF030000EF030000EE03000045
:1034C000EE030000EE030000ED030000ED0300003A
:1034D000ED030000EC030000EC030000EB03000030
:1034E000EB030000EB030000EA030000EA03000026
:1034F000EA030000E9030000E9030000E90300001B
:10350000E8030000E8030000E7030000E703000011
:10351000E7030000E6030000E6030000E503000007
:10352000E5030000E5030000E4030000E4030000FD
:10353000E3030000E3030000E2030000E2030000F5
:10354000E2030000E1030000E1030000E0030000EB
:10355000E0030000DF030000DF030000DE030000E3
:10356000DE030000DE030000DD030000DD030000D9
:10357000DC030000DC030000DB030000DB030000D1
:10358000DA030000DA030000D9030000D9030000C9
:10359000D8030000D8030000D7030000D7030000C1
:1035A000D6030000D6030000D5030000D5030000B9
:1035B000D4030000D4030000D3030000D3030000B1
:1035C000D2030000D2030000D1030000D1030000A9
:1035D000D0030000D0030000CF030000CE030000A2
:1035E000CE030000CD030000CD030000CC0300009B
:1035F000CC030000CB030000CB030000CA03000093
:10360000C9030000C9030000C8030000C80300008C
:10361000C7030000C6030000C6030000C503000086
:10362000C5030000C4030000C3030000C30300007F
:10363000C2030000C2030000C1030000C003000079
:10364000C0030000BF030000BF030000BE03000072
:10365000BD030000BD030000BC030000BB0300006D
:10366000BB030000BA030000B9030000B903000067
:10367000B8030000B7030000B7030000B603000062
:10368000B5030000B5030000B4030000B30300005D
:10369000B3030000B2030000B1030000B103000057
:1036A000B0030000AF030000AF030000AE03000052
:1036B000AD030000AD030000AC030000AB0300004D
:1036C000AA030000AA030000A9030000A803000049
:1036D000A7030000A7030000A6030000A503000045
:1036E000A5030000A4030000A3030000A203000040
:1036F000A2030000A1030000A00300009F0300003C
:103700009F0300009E0300009D0300009C03000037
:103710009C0300009B0300009A0300009903000033
:103720009803000098030000970300009603000030
:10373000950300009403000094030000930300002D
:10374000920300009103000090030000900300002A
:103750008F0300008E0300008D0300008C03000027
:103760008C0300008B0300008A0300008903000023
:103770008803000087030000860300008603000022
:10378000850300008403000083030000820300001F
:103790008103000081030000800300007F0300001C
:1037A0007E0300007D0300007C0300007B0300001B
:1037B0007A0300007A030000790300007803000018
:1037C0007703000076030000750300007403000017
:1037D0007303000072030000710300007103000016
:1037E000700300006F0300006E0300006D03000013
:1037F0006C0300006B0300006A0300006903000013
:103800006803000067030000660300006503000012
:103810006403000063030000630300006203000010
:1038200061030000600300005F0300005E0300000E
:103830005D0300005C0300005B0300005A0300000E
:10384000590300005803000057030000560300000E
:10385000550300005403000053030000520300000E
:1038600051030000500300004F0300004E0300000E
:103870004D0300004C0300004B0300004A0300000E
:10388000490300004803000047030000460300000E
:10389000450300004403000043030000420300000E
:1038A00041030000400300003F0300003E0300000E
:1038B0003C0300003B0300003A0300003903000012
:1038C0003803000037030000360300003503000012
:1038D0003403000033030000320300003103000012
:1038E000300300002F0300002E0300002C03000013
:1038F0002B0300002A030000290300002803000016
:103900002703000026030000250300002403000015
:103910002303000021030000200300001F03000018
:103920001E0300001D0300001C0300001B03000019
:103930001A0300001803000017030000160300001C
:10394000150300001403000013030000120300001D
:10395000100300000F0300000E0300000D03000021
:103960000C0300000B0300000A0300000803000022
:103970000703000006030000050300000403000025
:10398000030300000103000000030000FF02000029
:10399000FE020000FD020000FB020000FA0200002F
:1039A000F9020000F8020000F7020000F502000032
:1039B000F4020000F3020000F2020000F102000035
:1039C000EF020000EE020000ED020000EC02000039
:1039D000EB020000E9020000E8020000E70200003C
:1039E000E6020000E4020000E3020000E202000040
:1039F000E1020000DF020000DE020000DD02000044
:103A0000DC020000DA020000D9020000D802000047
:103A1000D7020000D5020000D4020000D30200004B
:103A2000D2020000D0020000CF020000CE0200004F
:103A3000CD020000CB020000CA020000C902000053
:103A4000C7020000C6020000C5020000C402000058
:103A5000C2020000C1020000C0020000BE0200005D
:103A6000BD020000BC020000BA020000B902000062
:103A7000B8020000B6020000B5020000B402000067
:103A8000B3020000B1020000B0020000AF0200006B
:103A9000AD020000AC020000AB020000A902000071
:103AA000A8020000A7020000A5020000A402000076
:103AB000A3020000A1020000A00200009F0200007B
:103AC0009D0200009C0200009A0200009902000082
:103AD0009802000096020000950200009402000087
:103AE0009202000091020000900200008E0200008D
:103AF0008D0200008B0200008A0200008902000093
:103B00008702000086020000840200008302000099
:103B100082020000800200007F0200007E0200009E
:103B20007C0200007B0200007902000078020000A5
:103B300076020000750200007402000072020000AC
:103B4000710200006F0200006E0200006D020000B2
:103B50006B0200006A0200006802000067020000B9
:103B600065020000640200006302000061020000C0
:103B7000600200005E0200005D0200005B020000C7
:103B80005A020000590200005702000056020000CD
:103B900054020000530200005102000050020000D5
:103BA0004E0200004D0200004B0200004A020000DD
:103BB00048020000470200004602000044020000E4
:103BC0004302000041020000400200003E020000EB
:103BD0003D0200003B0200003A02000038020000F3
:103BE00037020000350200003402000032020000FB
:103BF000310200002F0200002E0200002C02000003
:103C00002B0200002902000028020000260200000A
:103C10002502000023020000220200002002000012
:103C20001F0200001D0200001C0200001A0200001A
:103C30001902000017020000160200001402000022
:103C400013020000110200000F0200000E0200002B
:103C50000C0200000B020000090200000802000034
:103C6000060200000502000003020000020200003C
:103C700000020000FF010000FD010000FB01000048
:103C8000FA010000F8010000F7010000F501000052
:103C9000F4010000F2010000F1010000EF0100005A
:103CA000ED010000EC010000EA010000E901000064
:103CB000E7010000E6010000E4010000E20100006D
:103CC000E1010000DF010000DE010000DC01000076
:103CD000DA010000D9010000D7010000D601000080
:103CE000D4010000D3010000D1010000CF01000089
:103CF000CE010000CC010000CB010000C901000092
:103D0000C7010000C6010000C4010000C30100009B
:103D1000C1010000BF010000BE010000BC010000A5
:103D2000BB010000B9010000B7010000B6010000AE
:103D3000B4010000B2010000B1010000AF010000B9
:103D4000AE010000AC010000AA010000A9010000C2
:103D5000A7010000A5010000A4010000A2010000CD
:103D6000A10100009F0100009D0100009C010000D6
:103D70009A010000980100009701000095010000E1
:103D80009301000092010000900100008F010000EB
:103D90008D0100008B0100008A01000088010000F5
:103DA0008601000085010000830100008101000000
:103DB000800100007E0100007C0100007B0100000A
:103DC0007901000077010000760100007401000015
:103DD00072010000710100006F0100006D01000020
:103DE0006C0100006A01000068010000670100002A
:103DF0006501000063010000620100006001000035
:103E00005E0100005D0100005B010000590100003F
:103E10005801000056010000540100005301000049
:103E2000510100004F0100004D0100004C01000055
:103E30004A01000048010000470100004501000060
:103E40004301000042010000400100003E0100006B
:103E50003D0100003B010000390100003701000076
:103E60003601000034010000320100003101000081
:103E70002F0100002D0100002B0100002A0100008D
:103E80002801000026010000250100002301000098
:103E9000210100001F0100001E0100001C010000A4
:103EA0001A010000190100001701000015010000AF
:103EB0001301000012010000100100000E010000BB
:103EC0000D0100000B0100000901000007010000C6
:103ED00006010000040100000201000000010000D2
:103EE000FF000000FD000000FB000000FA000000E1
:103EF000F8000000F6000000F4000000F3000000ED
:103F0000F1000000EF000000ED000000EC000000F8
:103F1000EA000000E8000000E6000000E500000004
:103F2000E3000000E1000000DF000000DE00000010
:103F3000DC000000DA000000D8000000D70000001C
:103F4000D5000000D3000000D1000000D000000028
:103F5000CE000000CC000000CA000000C900000034
:103F6000C7000000C5000000C3000000C200000040
:103F7000C0000000BE000000BC000000BB0000004C
:103F8000B9000000B7000000B5000000B400000058
:103F9000B2000000B0000000AE000000AD00000064
:103FA000AB000000A9000000A7000000A600000070
:103FB000A4000000A2000000A00000009F0000007C
:103FC0009D0000009B000000990000009700000089
:103FD0009600000094000000920000009000000095
:103FE0008F0000008D0000008B00000089000000A1
:103FF00088000000860000008400000082000000AD
:10400000800000007F0000007D0000007B000000B9
:1040100079000000780000007600000074000000C5
:1040200072000000700000006F0000006D000000D2
:104030006B000000690000006800000066000000DE
:104040006400000062000000600000005F000000EB
:104050005D0000005B0000005900000058000000F7
:104060005600000054000000520000005000000004
:104070004F0000004D0000004B0000004900000010
:10408000480000004600000044000000420000001C
:10409000400000003F0000003D0000003B00000029
:1040A0003900000037000000360000003400000036
:1040B00032000000300000002F0000002D00000042
:1040C0002B0000002900000027000000260000004F
:1040D0002400000022000000200000001E0000005C
:1040E0001D0000001B000000190000001700000068
:1040F0001600000014000000120000001000000074
:104100000E0000000D0000000B0000000900000080
:10411000070000000500000004000000020000008D
:1041200000000000FEFFFFFFFDFFFFFFFBFFFFFFA2
:10413000F9FFFFFFF7FFFFFFF5FFFFFFF4FFFFFFB2
:10414000F2FFFFFFF0FFFFFFEEFFFFFFECFFFFFFBF
:10415000EBFFFFFFE9FFFFFFE7FFFFFFE5FFFFFFCB
:10416000E4FFFFFFE2FFFFFFE0FFFFFFDEFFFFFFD7
:10417000DCFFFFFFDBFFFFFFD9FFFFFFD7FFFFFFE4
:10418000D5FFFFFFD3FFFFFFD2FFFFFFD0FFFFFFF1
:10419000CEFFFFFFCCFFFFFFCBFFFFFFC9FFFFFFFD
:1041A000C7FFFFFFC5FFFFFFC3FFFFFFC2FFFFFF0A
:1041B000C0FFFFFFBEFFFFFFBCFFFFFFBAFFFFFF17
:1041C000B9FFFFFFB7FFFFFFB5FFFFFFB3FFFFFF23
:1041D000B2FFFFFFB0FFFFFFAEFFFFFFACFFFFFF2F
:1041E000AAFFFFFFA9FFFFFFA7FFFFFFA5FFFFFF3C
:1041F000A3FFFFFFA2FFFFFFA0FFFFFF9EFFFFFF48
:104200009CFFFFFF9AFFFFFF99FFFFFF97FFFFFF54
:1042100095FFFFFF93FFFFFF92FFFFFF90FFFFFF60
:104220008EFFFFFF8CFFFFFF8AFFFFFF89FFFFFF6D
:1042300087FFFFFF85FFFFFF83FFFFFF82FFFFFF79
:1042400080FFFFFF7EFFFFFF7CFFFFFF7AFFFFFF86
:1042500079FFFFFF77FFFFFF75FFFFFF73FFFFFF92
:1042600072FFFFFF70FFFFFF6EFFFFFF6CFFFFFF9E
:104270006BFFFFFF69FFFFFF67FFFFFF65FFFFFFAA
:1042800063FFFFFF62FFFFFF60FFFFFF5EFFFFFFB7
:104290005CFFFFFF5BFFFFFF59FFFFFF57FFFFFFC3
:1042A00055FFFFFF54FFFFFF52FFFFFF50FFFFFFCF
:1042B0004EFFFFFF4DFFFFFF4BFFFFFF49FFFFFFDB
:1042C00047FFFFFF45FFFFFF44FFFFFF42FFFFFFE8
:1042D00040FFFFFF3EFFFFFF3DFFFFFF3BFFFFFFF4
:1042E00039FFFFFF37FFFFFF36FFFFFF34FFFFFF00
:1042F00032FFFFFF30FFFFFF2FFFFFFF2DFFFFFF0C
:104300002BFFFFFF29FFFFFF28FFFFFF26FFFFFF17
:1043100024FFFFFF22FFFFFF21FFFFFF1FFFFFFF23
:104320001DFFFFFF1BFFFFFF1AFFFFFF18FFFFFF2F
:1043300016FFFFFF15FFFFFF13FFFFFF11FFFFFF3A
:104340000FFFFFFF0EFFFFFF0CFFFFFF0AFFFFFF46
:1043500008FFFFFF07FFFFFF05FFFFFF03FFFFFF52
:1043600001FFFFFF00FFFFFFFEFEFFFFFCFEFFFF60
:10437000FBFEFFFFF9FEFFFFF7FEFFFFF5FEFFFF6D
:10438000F4FEFFFFF2FEFFFFF0FEFFFFEEFEFFFF79
:10439000EDFEFFFFEBFEFFFFE9FEFFFFE8FEFFFF84
:1043A000E6FEFFFFE4FEFFFFE2FEFFFFE1FEFFFF90
:1043B000DFFEFFFFDDFEFFFFDCFEFFFFDAFEFFFF9B
:1043C000D8FEFFFFD6FEFFFFD5FEFFFFD3FEFFFFA7
:1043D000D1FEFFFFD0FEFFFFCEFEFFFFCCFEFFFFB2
:1043E000CAFEFFFFC9FEFFFFC7FEFFFFC5FEFFFFBE
:1043F000C4FEFFFFC2FEFFFFC0FEFFFFBFFEFFFFC8
:10440000BDFEFFFFBBFEFFFFB9FEFFFFB8FEFFFFD3
:10441000B6FEFFFFB4FEFFFFB3FEFFFFB1FEFFFFDE
:10442000AFFEFFFFAEFEFFFFACFEFFFFAAFEFFFFE9
:10443000A9FEFFFFA7FEFFFFA5FEFFFFA4FEFFFFF3
:10444000A2FEFFFFA0FEFFFF9FFEFFFF9DFEFFFFFE
:104450009BFEFFFF99FEFFFF98FEFFFF96FEFFFF0A
:1044600094FEFFFF93FEFFFF91FEFFFF8FFEFFFF15
:104470008EFEFFFF8CFEFFFF8AFEFFFF89FEFFFF1F
:1044800087FEFFFF85FEFFFF84FEFFFF82FEFFFF2A
:1044900081FEFFFF7FFEFFFF7DFEFFFF7CFEFFFF33
:1044A0007AFEFFFF78FEFFFF77FEFFFF75FEFFFF3E
:1044B00073FEFFFF72FEFFFF70FEFFFF6EFEFFFF49
:1044C0006DFEFFFF6BFEFFFF69FEFFFF68FEFFFF53
:1044D00066FEFFFF65FEFFFF63FEFFFF61FEFFFF5D
:1044E00060FEFFFF5EFEFFFF5CFEFFFF5BFEFFFF67
:1044F00059FEFFFF57FEFFFF56FEFFFF54FEFFFF72
:1045000053FEFFFF51FEFFFF4FFEFFFF4EFEFFFF7A
:104510004CFEFFFF4AFEFFFF49FEFFFF47FEFFFF85
:1045200046FEFFFF44FEFFFF42FEFFFF41FEFFFF8E
:104530003FFEFFFF3EFEFFFF3CFEFFFF3AFEFFFF98
:1045400039FEFFFF37FEFFFF36FEFFFF34FEFFFFA1
:1045500032FEFFFF31FEFFFF2FFEFFFF2EFEFFFFAB
:104560002CFEFFFF2AFEFFFF29FEFFFF27FEFFFFB5
:1045700026FEFFFF24FEFFFF23FEFFFF21FEFFFFBD
:104580001FFEFFFF1EFEFFFF1CFEFFFF1BFEFFFFC7
:1045900019FEFFFF17FEFFFF16FEFFFF14FEFFFFD1
:1045A00013FEFFFF11FEFFFF10FEFFFF0EFEFFFFD9
:1045B0000DFEFFFF0BFEFFFF09FEFFFF08FEFFFFE2
:1045C00006FEFFFF05FEFFFF03FEFFFF02FEFFFFEB
:1045D00000FEFFFFFFFDFFFFFDFDFFFFFBFDFFFFF7
:1045E000FAFDFFFFF8FDFFFFF7FDFFFFF5FDFFFF01
:1045F000F4FDFFFFF2FDFFFFF1FDFFFFEFFDFFFF09
:10460000EEFDFFFFECFDFFFFEBFDFFFFE9FDFFFF10
:10461000E8FDFFFFE6FDFFFFE4FDFFFFE3FDFFFF19
:10462000E1FDFFFFE0FDFFFFDEFDFFFFDDFDFFFF22
:10463000DBFDFFFFDAFDFFFFD8FDFFFFD7FDFFFF2A
:10464000D5FDFFFFD4FDFFFFD2FDFFFFD1FDFFFF32
:10465000CFFDFFFFCEFDFFFFCCFDFFFFCBFDFFFF3A
:10466000C9FDFFFFC8FDFFFFC6FDFFFFC5FDFFFF42
:10467000C3FDFFFFC2FDFFFFC1FDFFFFBFFDFFFF49
:10468000BEFDFFFFBCFDFFFFBBFDFFFFB9FDFFFF50
:10469000B8FDFFFFB6FDFFFFB5FDFFFFB3FDFFFF58
:1046A000B2FDFFFFB0FDFFFFAFFDFFFFADFDFFFF60
:1046B000ACFDFFFFABFDFFFFA9FDFFFFA8FDFFFF66
:1046C000A6FDFFFFA5FDFFFFA3FDFFFFA2FDFFFF6E
:1046D000A0FDFFFF9FFDFFFF9EFDFFFF9CFDFFFF75
:1046E0009BFDFFFF99FDFFFF98FDFFFF96FDFFFF7C
:1046F00095FDFFFF94FDFFFF92FDFFFF91FDFFFF82
:104700008FFDFFFF8EFDFFFF8CFDFFFF8BFDFFFF89
:104710008AFDFFFF88FDFFFF87FDFFFF85FDFFFF8F
:1047200084FDFFFF83FDFFFF81FDFFFF80FDFFFF95
:104730007EFDFFFF7DFDFFFF7CFDFFFF7AFDFFFF9C
:1047400079FDFFFF78FDFFFF76FDFFFF75FDFFFFA1
:1047500073FDFFFF72FDFFFF71FDFFFF6FFDFFFFA8
:104760006EFDFFFF6DFDFFFF6BFDFFFF6AFDFFFFAD
:1047700068FDFFFF67FDFFFF66FDFFFF64FDFFFFB4
:1047800063FDFFFF62FDFFFF60FDFFFF5FFDFFFFB9
:104790005EFDFFFF5CFDFFFF5BFDFFFF5AFDFFFFBE
:1047A00058FDFFFF57FDFFFF56FDFFFF54FDFFFFC4
:1047B00053FDFFFF52FDFFFF50FDFFFF4FFDFFFFC9
:1047C0004EFDFFFF4CFDFFFF4BFDFFFF4AFDFFFFCE
:1047D00048FDFFFF47FDFFFF46FDFFFF44FDFFFFD4
:1047E00043FDFFFF42FDFFFF41FDFFFF3FFDFFFFD8
:1047F0003EFDFFFF3DFDFFFF3BFDFFFF3AFDFFFFDD
:1048000039FDFFFF37FDFFFF36FDFFFF35FDFFFFE1
:1048100034FDFFFF32FDFFFF31FDFFFF30FDFFFFE5
:104820002FFDFFFF2DFDFFFF2CFDFFFF2BFDFFFFE9
:1048300029FDFFFF28FDFFFF27FDFFFF26FDFFFFEE
:1048400024FDFFFF23FDFFFF22FDFFFF21FDFFFFF2
:104850001FFDFFFF1EFDFFFF1DFDFFFF1CFDFFFFF6
:104860001BFDFFFF19FDFFFF18FDFFFF17FDFFFFF9
:1048700016FDFFFF14FDFFFF13FDFFFF12FDFFFFFD
:1048800011FDFFFF10FDFFFF0EFDFFFF0DFDFFFF00
:104890000CFDFFFF0BFDFFFF09FDFFFF08FDFFFF04
:1048A00007FDFFFF06FDFFFF05FDFFFF04FDFFFF06
:1048B00002FDFFFF01FDFFFF00FDFFFFFFFCFFFF0B
:1048C000FEFCFFFFFCFCFFFFFBFCFFFFFAFCFFFF11
:1048D000F9FCFFFFF8FCFFFFF7FCFFFFF5FCFFFF13
:1048E000F4FCFFFFF3FCFFFFF2FCFFFFF1FCFFFF16
:1048F000F0FCFFFFEFFCFFFFEDFCFFFFECFCFFFF18
:10490000EBFCFFFFEAFCFFFFE9FCFFFFE8FCFFFF19
:10491000E7FCFFFFE5FCFFFFE4FCFFFFE3FCFFFF1C
:10492000E2FCFFFFE1FCFFFFE0FCFFFFDFFCFFFF1D
:10493000DEFCFFFFDCFCFFFFDBFCFFFFDAFCFFFF20
:10494000D9FCFFFFD8FCFFFFD7FCFFFFD6FCFFFF21
:10495000D5FCFFFFD4FCFFFFD3FCFFFFD2FCFFFF21
:10496000D0FCFFFFCFFCFFFFCEFCFFFFCDFCFFFF25
:10497000CCFCFFFFCBFCFFFFCAFCFFFFC9FCFFFF25
:10498000C8FCFFFFC7FCFFFFC6FCFFFFC5FCFFFF25
:10499000C4FCFFFFC3FCFFFFC2FCFFFFC0FCFFFF26
:1049A000BFFCFFFFBEFCFFFFBDFCFFFFBCFCFFFF29
:1049B000BBFCFFFFBAFCFFFFB9FCFFFFB8FCFFFF29
:1049C000B7FCFFFFB6FCFFFFB5FCFFFFB4FCFFFF29
:1049D000B3FCFFFFB2FCFFFFB1FCFFFFB0FCFFFF29
:1049E000AFFCFFFFAEFCFFFFADFCFFFFACFCFFFF29
:1049F000ABFCFFFFAAFCFFFFA9FCFFFFA8FCFFFF29
:104A0000A7FCFFFFA6FCFFFFA5FCFFFFA4FCFFFF28
:104A1000A3FCFFFFA2FCFFFFA1FCFFFFA0FCFFFF28
:104A20009FFCFFFF9FFCFFFF9EFCFFFF9DFCFFFF25
:104A30009CFCFFFF9BFCFFFF9AFCFFFF99FCFFFF24
:104A400098FCFFFF97FCFFFF96FCFFFF95FCFFFF24
:104A500094FCFFFF93FCFFFF92FCFFFF91FCFFFF24
:104A600090FCFFFF90FCFFFF8FFCFFFF8EFCFFFF21
:104A70008DFCFFFF8CFCFFFF8BFCFFFF8AFCFFFF20
:104A800089FCFFFF88FCFFFF87FCFFFF87FCFFFF1F
:104A900086FCFFFF85FCFFFF84FCFFFF83FCFFFF1C
:104AA00082FCFFFF81FCFFFF80FCFFFF80FCFFFF1B
:104AB0007FFCFFFF7EFCFFFF7DFCFFFF7CFCFFFF18
:104AC0007BFCFFFF7AFCFFFF7AFCFFFF79FCFFFF16
:104AD00078FCFFFF77FCFFFF76FCFFFF75FCFFFF14
:104AE00075FCFFFF74FCFFFF73FCFFFF72FCFFFF10
:104AF00071FCFFFF70FCFFFF70FCFFFF6FFCFFFF0E
:104B00006EFCFFFF6DFCFFFF6CFCFFFF6CFCFFFF0A
:104B10006BFCFFFF6AFCFFFF69FCFFFF68FCFFFF07
:104B200068FCFFFF67FCFFFF66FCFFFF65FCFFFF03
:104B300065FCFFFF64FCFFFF63FCFFFF62FCFFFFFF
:104B400062FCFFFF61FCFFFF60FCFFFF5FFCFFFFFB
:104B50005EFCFFFF5EFCFFFF5DFCFFFF5CFCFFFFF8
:104B60005CFCFFFF5BFCFFFF5AFCFFFF59FCFFFFF3
:104B700059FCFFFF58FCFFFF57FCFFFF56FCFFFFEF
:104B800056FCFFFF55FCFFFF54FCFFFF54FCFFFFEA
:104B900053FCFFFF52FCFFFF51FCFFFF51FCFFFFE6
:104BA00050FCFFFF4FFCFFFF4FFCFFFF4EFCFFFFE1
:104BB0004DFCFFFF4DFCFFFF4CFCFFFF4BFCFFFFDC
:104BC0004BFCFFFF4AFCFFFF49FCFFFF49FCFFFFD6
:104BD00048FCFFFF47FCFFFF47FCFFFF46FCFFFFD1
:104BE00045FCFFFF45FCFFFF44FCFFFF43FCFFFFCC
:104BF00043FCFFFF42FCFFFF42FCFFFF41FCFFFFC5
:104C000040FCFFFF40FCFFFF3FFCFFFF3EFCFFFFBF
:104C10003EFCFFFF3DFCFFFF3DFCFFFF3CFCFFFFB8
:104C20003BFCFFFF3BFCFFFF3AFCFFFF3AFCFFFFB2
:104C300039FCFFFF38FCFFFF38FCFFFF37FCFFFFAC
:104C400037FCFFFF36FCFFFF36FCFFFF35FCFFFFA4
:104C500034FCFFFF34FCFFFF33FCFFFF33FCFFFF9E
:104C600032FCFFFF32FCFFFF31FCFFFF31FCFFFF96
:104C700030FCFFFF2FFCFFFF2FFCFFFF2EFCFFFF90
:104C80002EFCFFFF2DFCFFFF2DFCFFFF2CFCFFFF88
:104C90002CFCFFFF2BFCFFFF2BFCFFFF2AFCFFFF80
:104CA0002AFCFFFF29FCFFFF29FCFFFF28FCFFFF78
:104CB00028FCFFFF27FCFFFF27FCFFFF26FCFFFF70
:104CC00026FCFFFF25FCFFFF25FCFFFF24FCFFFF68
:104CD00024FCFFFF23FCFFFF23FCFFFF22FCFFFF60
:104CE00022FCFFFF22FCFFFF21FCFFFF21FCFFFF56
:104CF00020FCFFFF20FCFFFF1FFCFFFF1FFCFFFF4E
:104D00001EFCFFFF1EFCFFFF1EFCFFFF1DFCFFFF44
:104D10001DFCFFFF1CFCFFFF1CFCFFFF1BFCFFFF3B
:104D20001BFCFFFF1BFCFFFF1AFCFFFF1AFCFFFF31
:104D300019FCFFFF19FCFFFF19FCFFFF18FCFFFF28
:104D400018FCFFFF18FCFFFF17FCFFFF17FCFFFF1D
:104D500016FCFFFF16FCFFFF16FCFFFF15FCFFFF14
:104D600015FCFFFF15FCFFFF14FCFFFF14FCFFFF09
:104D700014FCFFFF13FCFFFF13FCFFFF13FCFFFFFE
:104D800012FCFFFF12FCFFFF11FCFFFF11FCFFFFF5
:104D900011FCFFFF11FCFFFF10FCFFFF10FCFFFFE9
:104DA00010FCFFFF0FFCFFFF0FFCFFFF0FFCFFFFDE
:104DB0000EFCFFFF0EFCFFFF0EFCFFFF0DFCFFFFD4
:104DC0000DFCFFFF0DFCFFFF0DFCFFFF0CFCFFFFC8
:104DD0000CFCFFFF0CFCFFFF0CFCFFFF0BFCFFFFBC
:104DE0000BFCFFFF0BFCFFFF0AFCFFFF0AFCFFFFB1
:104DF0000AFCFFFF0AFCFFFF09FCFFFF09FCFFFFA5
:104E000009FCFFFF09FCFFFF09FCFFFF08FCFFFF97
:104E100008FCFFFF08FCFFFF08FCFFFF07FCFFFF8B
:104E200007FCFFFF07FCFFFF07FCFFFF07FCFFFF7E
:104E300006FCFFFF06FCFFFF06FCFFFF06FCFFFF72
:104E400006FCFFFF05FCFFFF05FCFFFF05FCFFFF65
:104E500005FCFFFF05FCFFFF05FCFFFF04FCFFFF57
:104E600004FCFFFF04FCFFFF04FCFFFF04FCFFFF4A
:104E700004FCFFFF03FCFFFF03FCFFFF03FCFFFF3D
:104E800003FCFFFF03FCFFFF03FCFFFF03FCFFFF2E
:104E900003FCFFFF02FCFFFF02FCFFFF02FCFFFF21
:104EA00002FCFFFF02FCFFFF02FCFFFF02FCFFFF12
:104EB00002FCFFFF02FCFFFF01FCFFFF01FCFFFF04
:104EC00001FCFFFF01FCFFFF01FCFFFF01FCFFFFF6
:104ED00001FCFFFF01FCFFFF01FCFFFF01FCFFFFE6
:104EE00001FCFFFF01FCFFFF01FCFFFF00FCFFFFD7
:104EF00000FCFFFF00FCFFFF00FCFFFF00FCFFFFCA
:104F000000FCFFFF00FCFFFF00FCFFFF00FCFFFFB9
:104F100000FCFFFF00FCFFFF00FCFFFF00FCFFFFA9
:104F200000FCFFFF00FCFFFF00FCFFFF00FCFFFF99
:104F300000FCFFFF00FCFFFF00FCFFFF00FCFFFF89
:104F400000FCFFFF00FCFFFF00FCFFFF00FCFFFF79
:104F500000FCFFFF00FCFFFF00FCFFFF00FCFFFF69
:104F600000FCFFFF00FCFFFF00FCFFFF00FCFFFF59
:104F700000FCFFFF00FCFFFF01FCFFFF01FCFFFF47
:104F800001FCFFFF01FCFFFF01FCFFFF01FCFFFF35
:104F900001FCFFFF01FCFFFF01FCFFFF01FCFFFF25
:104FA00001FCFFFF01FCFFFF01FCFFFF01FCFFFF15
:104FB00002FCFFFF02FCFFFF02FCFFFF02FCFFFF01
:104FC00002FCFFFF02FCFFFF02FCFFFF02FCFFFFF1
:104FD00002FCFFFF03FCFFFF03FCFFFF03FCFFFFDE
:104FE00003FCFFFF03FCFFFF03FCFFFF03FCFFFFCD
:104FF00004FCFFFF04FCFFFF04FCFFFF04FCFFFFB9
:1050000004FCFFFF04FCFFFF05FCFFFF05FCFFFFA6
:1050100005FCFFFF05FCFFFF05FCFFFF05FCFFFF94
:1050200006FCFFFF06FCFFFF06FCFFFF06FCFFFF80
:1050300006FCFFFF07FCFFFF07FCFFFF07FCFFFF6D
:1050400007FCFFFF07FCFFFF08FCFFFF08FCFFFF5A
:1050500008FCFFFF08FCFFFF09FCFFFF09FCFFFF46
:1050600009FCFFFF09FCFFFF09FCFFFF0AFCFFFF33
:105070000AFCFFFF0AFCFFFF0AFCFFFF0BFCFFFF1F
:105080000BFCFFFF0BFCFFFF0BFCFFFF0CFCFFFF0B
:105090000CFCFFFF0CFCFFFF0DFCFFFF0DFCFFFFF6
:1050A0000DFCFFFF0DFCFFFF0EFCFFFF0EFCFFFFE2
:1050B0000EFCFFFF0FFCFFFF0FFCFFFF0FFCFFFFCD
:1050C00010FCFFFF10FCFFFF10FCFFFF10FCFFFFB8
:1050D00011FCFFFF11FCFFFF11FCFFFF12FCFFFFA3
:1050E00012FCFFFF12FCFFFF13FCFFFF13FCFFFF8E
:1050F00013FCFFFF14FCFFFF14FCFFFF15FCFFFF78
:1051000015FCFFFF15FCFFFF16FCFFFF16FCFFFF61
:1051100016FCFFFF17FCFFFF17FCFFFF17FCFFFF4C
:1051200018FCFFFF18FCFFFF19FCFFFF19FCFFFF35
:1051300019FCFFFF1AFCFFFF1AFCFFFF1BFCFFFF1F
:105140001BFCFFFF1BFCFFFF1CFCFFFF1CFCFFFF09
:105150001DFCFFFF1DFCFFFF1EFCFFFF1EFCFFFFF1
:105160001EFCFFFF1FFCFFFF1FFCFFFF20FCFFFFDB
:1051700020FCFFFF21FCFFFF21FCFFFF21FCFFFFC4
:1051800022FCFFFF22FCFFFF23FCFFFF23FCFFFFAD
:1051900024FCFFFF24FCFFFF25FCFFFF25FCFFFF95
:1051A00026FCFFFF26FCFFFF27FCFFFF27FCFFFF7D
:1051B00028FCFFFF28FCFFFF29FCFFFF29FCFFFF65
:1051C0002AFCFFFF2AFCFFFF2BFCFFFF2BFCFFFF4D
:1051D0002CFCFFFF2CFCFFFF2DFCFFFF2DFCFFFF35
:1051E0002EFCFFFF2EFCFFFF2FFCFFFF2FFCFFFF1D
:1051F00030FCFFFF30FCFFFF31FCFFFF32FCFFFF04
:1052000032FCFFFF33FCFFFF33FCFFFF34FCFFFFEA
:1052100034FCFFFF35FCFFFF35FCFFFF36FCFFFFD2
:1052200037FCFFFF37FCFFFF38FCFFFF38FCFFFFB8
:1052300039FCFFFF39FCFFFF3AFCFFFF3BFCFFFF9F
:105240003BFCFFFF3CFCFFFF3CFCFFFF3DFCFFFF86
:105250003EFCFFFF3EFCFFFF3FFCFFFF40FCFFFF6B
:1052600040FCFFFF41FCFFFF41FCFFFF42FCFFFF52
:1052700043FCFFFF43FCFFFF44FCFFFF45FCFFFF37
:1052800045FCFFFF46FCFFFF47FCFFFF47FCFFFF1D
:1052900048FCFFFF49FCFFFF49FCFFFF4AFCFFFF02
:1052A0004BFCFFFF4BFCFFFF4CFCFFFF4DFCFFFFE7
:1052B0004DFCFFFF4EFCFFFF4FFCFFFF4FFCFFFFCD
:1052C00050FCFFFF51FCFFFF51FCFFFF52FCFFFFB2
:1052D00053FCFFFF53FCFFFF54FCFFFF55FCFFFF97
:1052E00056FCFFFF56FCFFFF57FCFFFF58FCFFFF7B
:1052F00058FCFFFF59FCFFFF5AFCFFFF5BFCFFFF60
:105300005BFCFFFF5CFCFFFF5DFCFFFF5EFCFFFF43
:105310005EFCFFFF5FFCFFFF60FCFFFF61FCFFFF27
:1053200061FCFFFF62FCFFFF63FCFFFF64FCFFFF0B
:1053300064FCFFFF65FCFFFF66FCFFFF67FCFFFFEF
:1053400068FCFFFF68FCFFFF69FCFFFF6AFCFFFFD2
:105350006BFCFFFF6CFCFFFF6CFCFFFF6DFCFFFFB5
:105360006EFCFFFF6FFCFFFF70FCFFFF70FCFFFF98
:1053700071FCFFFF72FCFFFF73FCFFFF74FCFFFF7B
:1053800074FCFFFF75FCFFFF76FCFFFF77FCFFFF5F
:1053900078FCFFFF79FCFFFF79FCFFFF7AFCFFFF41
:1053A0007BFCFFFF7CFCFFFF7DFCFFFF7EFCFFFF23
:1053B0007FFCFFFF7FFCFFFF80FCFFFF81FCFFFF06
:1053C00082FCFFFF83FCFFFF84FCFFFF85FCFFFFE7
:1053D00086FCFFFF86FCFFFF87FCFFFF88FCFFFFCA
:1053E00089FCFFFF8AFCFFFF8BFCFFFF8CFCFFFFAB
:1053F0008DFCFFFF8EFCFFFF8FFCFFFF8FFCFFFF8C
:1054000090FCFFFF91FCFFFF92FCFFFF93FCFFFF6E
:1054100094FCFFFF95FCFFFF96FCFFFF97FCFFFF4E
:1054200098FCFFFF99FCFFFF9AFCFFFF9BFCFFFF2E
:105430009CFCFFFF9CFCFFFF9DFCFFFF9EFCFFFF11
:105440009FFCFFFFA0FCFFFFA1FCFFFFA2FCFFFFF2
:10545000A3FCFFFFA4FCFFFFA5FCFFFFA6FCFFFFD2
:10546000A7FCFFFFA8FCFFFFA9FCFFFFAAFCFFFFB2
:10547000ABFCFFFFACFCFFFFADFCFFFFAEFCFFFF92
:10548000AFFCFFFFB0FCFFFFB1FCFFFFB2FCFFFF72
:10549000B3FCFFFFB4FCFFFFB5FCFFFFB6FCFFFF52
:1054A000B7FCFFFFB8FCFFFFB9FCFFFFBAFCFFFF32
:1054B000BBFCFFFFBCFCFFFFBDFCFFFFBEFCFFFF12
:1054C000BFFCFFFFC0FCFFFFC1FCFFFFC2FCFFFFF2
:1054D000C3FCFFFFC5FCFFFFC6FCFFFFC7FCFFFFCF
:1054E000C8FCFFFFC9FCFFFFCAFCFFFFCBFCFFFFAE
:1054F000CCFCFFFFCDFCFFFFCEFCFFFFCFFCFFFF8E
:10550000D0FCFFFFD1FCFFFFD2FCFFFFD4FCFFFF6C
:10551000D5FCFFFFD6FCFFFFD7FCFFFFD8FCFFFF49
:10552000D9FCFFFFDAFCFFFFDBFCFFFFDCFCFFFF29
:10553000DDFCFFFFDFFCFFFFE0FCFFFFE1FCFFFF06
:10554000E2FCFFFFE3FCFFFFE4FCFFFFE5FCFFFFE5
:10555000E6FCFFFFE7FCFFFFE9FCFFFFEAFCFFFFC3
:10556000EBFCFFFFECFCFFFFEDFCFFFFEEFCFFFFA1
:10557000EFFCFFFFF1FCFFFFF2FCFFFFF3FCFFFF7E
:10558000F4FCFFFFF5FCFFFFF6FCFFFFF8FCFFFF5C
:10559000F9FCFFFFFAFCFFFFFBFCFFFFFCFCFFFF39
:1055A000FDFCFFFFFFFCFFFF00FDFFFF01FDFFFF14
:1055B00002FDFFFF03FDFFFF05FDFFFF06FDFFFFEF
:1055C00007FDFFFF08FDFFFF09FDFFFF0BFDFFFFCC
:1055D0000CFDFFFF0DFDFFFF0EFDFFFF0FFDFFFFA9
:1055E00011FDFFFF12FDFFFF13FDFFFF14FDFFFF85
:1055F00015FDFFFF17FDFFFF18FDFFFF19FDFFFF62
:105600001AFDFFFF1CFDFFFF1DFDFFFF1EFDFFFF3D
:105610001FFDFFFF21FDFFFF22FDFFFF23FDFFFF19
:1056200024FDFFFF26FDFFFF27FDFFFF28FDFFFFF5
:1056300029FDFFFF2BFDFFFF2CFDFFFF2DFDFFFFD1
:105640002EFDFFFF30FDFFFF31FDFFFF32FDFFFFAD
:1056500033FDFFFF35FDFFFF36FDFFFF37FDFFFF89
:1056600039FDFFFF3AFDFFFF3BFDFFFF3CFDFFFF64
:105670003EFDFFFF3FFDFFFF40FDFFFF42FDFFFF3F
:1056800043FDFFFF44FDFFFF46FDFFFF47FDFFFF1A
:1056900048FDFFFF49FDFFFF4BFDFFFF4CFDFFFFF6
:1056A0004DFDFFFF4FFDFFFF50FDFFFF51FDFFFFD1
:1056B00053FDFFFF54FDFFFF55FDFFFF57FDFFFFAB
:1056C00058FDFFFF59FDFFFF5BFDFFFF5CFDFFFF86
:1056D0005DFDFFFF5FFDFFFF60FDFFFF61FDFFFF61
:1056E00063FDFFFF64FDFFFF65FDFFFF67FDFFFF3B
:1056F00068FDFFFF6AFDFFFF6BFDFFFF6CFDFFFF15
:105700006EFDFFFF6FFDFFFF70FDFFFF72FDFFFFEE
:1057100073FDFFFF75FDFFFF76FDFFFF77FDFFFFC8
:1057200079FDFFFF7AFDFFFF7BFDFFFF7DFDFFFFA2
:105730007EFDFFFF80FDFFFF81FDFFFF82FDFFFF7C
:1057400084FDFFFF85FDFFFF87FDFFFF88FDFFFF55
:1057500089FDFFFF8BFDFFFF8CFDFFFF8EFDFFFF2F
:105760008FFDFFFF90FDFFFF92FDFFFF93FDFFFF09
:1057700095FDFFFF96FDFFFF98FDFFFF99FDFFFFE1
:105780009AFDFFFF9CFDFFFF9DFDFFFF9FFDFFFFBB
:10579000A0FDFFFFA2FDFFFFA3FDFFFFA5FDFFFF93
:1057A000A6FDFFFFA7FDFFFFA9FDFFFFAAFDFFFF6D
:1057B000ACFDFFFFADFDFFFFAFFDFFFFB0FDFFFF45
:1057C000B2FDFFFFB3FDFFFFB5FDFFFFB6FDFFFF1D
:1057D000B7FDFFFFB9FDFFFFBAFDFFFFBCFDFFFFF7
:1057E000BDFDFFFFBFFDFFFFC0FDFFFFC2FDFFFFCF
:1057F000C3FDFFFFC5FDFFFFC6FDFFFFC8FDFFFFA7
:10580000C9FDFFFFCBFDFFFFCCFDFFFFCEFDFFFF7E
:10581000CFFDFFFFD1FDFFFFD2FDFFFFD4FDFFFF56
:10582000D5FDFFFFD7FDFFFFD8FDFFFFDAFDFFFF2E
:10583000DBFDFFFFDDFDFFFFDEFDFFFFE0FDFFFF06
:10584000E1FDFFFFE3FDFFFFE4FDFFFFE6FDFFFFDE
:10585000E7FDFFFFE9FDFFFFEAFDFFFFECFDFFFFB6
:10586000EDFDFFFFEFFDFFFFF0FDFFFFF2FDFFFF8E
:10587000F4FDFFFFF5FDFFFFF7FDFFFFF8FDFFFF64
:10588000FAFDFFFFFBFDFFFFFDFDFFFFFEFDFFFF3C
:1058900000FEFFFF01FEFFFF03FEFFFF04FEFFFF10
:1058A00006FEFFFF08FEFFFF09FEFFFF0BFEFFFFE6
:1058B0000CFEFFFF0EFEFFFF0FFEFFFF11FEFFFFBE
:1058C00013FEFFFF14FEFFFF16FEFFFF17FEFFFF94
:1058D00019FEFFFF1AFEFFFF1CFEFFFF1EFEFFFF6B
:1058E0001FFEFFFF21FEFFFF22FEFFFF24FEFFFF42
:1058F00025FEFFFF27FEFFFF29FEFFFF2AFEFFFF19
:105900002CFEFFFF2DFEFFFF2FFEFFFF31FEFFFFEE
:1059100032FEFFFF34FEFFFF35FEFFFF37FEFFFFC5
:1059200039FEFFFF3AFEFFFF3CFEFFFF3DFEFFFF9B
:105930003FFEFFFF41FEFFFF42FEFFFF44FEFFFF71
:1059400045FEFFFF47FEFFFF49FEFFFF4AFEFFFF48
:105950004CFEFFFF4DFEFFFF4FFEFFFF51FEFFFF1E
:1059600052FEFFFF54FEFFFF56FEFFFF57FEFFFFF4
:1059700059FEFFFF5AFEFFFF5CFEFFFF5EFEFFFFCA
:105980005FFEFFFF61FEFFFF63FEFFFF64FEFFFFA0
:1059900066FEFFFF68FEFFFF69FEFFFF6BFEFFFF75
:1059A0006CFEFFFF6EFEFFFF70FEFFFF71FEFFFF4C
:1059B00073FEFFFF75FEFFFF76FEFFFF78FEFFFF21
:1059C0007AFEFFFF7BFEFFFF7DFEFFFF7FFEFFFFF6
:1059D00080FEFFFF82FEFFFF84FEFFFF85FEFFFFCC
:1059E00087FEFFFF89FEFFFF8AFEFFFF8CFEFFFFA1
:1059F0008EFEFFFF8FFEFFFF91FEFFFF93FEFFFF76
:105A000094FEFFFF96FEFFFF98FEFFFF99FEFFFF4B
:105A10009BFEFFFF9DFEFFFF9EFEFFFFA0FEFFFF20
:105A2000A2FEFFFFA3FEFFFFA5FEFFFFA7FEFFFFF5
:105A3000A8FEFFFFAAFEFFFFACFEFFFFADFEFFFFCB
:105A4000AFFEFFFFB1FEFFFFB2FEFFFFB4FEFFFFA0
:105A5000B6FEFFFFB8FEFFFFB9FEFFFFBBFEFFFF74
:105A6000BDFEFFFFBEFEFFFFC0FEFFFFC2FEFFFF49
:105A7000C3FEFFFFC5FEFFFFC7FEFFFFC8FEFFFF1F
:105A8000CAFEFFFFCCFEFFFFCEFEFFFFCFFEFFFFF3
:105A9000D1FEFFFFD3FEFFFFD4FEFFFFD6FEFFFFC8
:105AA000D8FEFFFFDAFEFFFFDBFEFFFFDDFEFFFF9C
:105AB000DFFEFFFFE0FEFFFFE2FEFFFFE4FEFFFF71
:105AC000E6FEFFFFE7FEFFFFE9FEFFFFEBFEFFFF45
:105AD000ECFEFFFFEEFEFFFFF0FEFFFFF2FEFFFF1A
